:020000040010EA
:100000000000022035131000950A1000450E100064
:10001000950A1000950A1000950A1000950A100024
:10002000DFF810D000F0AAF800F062F800480047AE
:10003000114E10000000022010B5431A934209D25D
:100040008318881803E010F8011D03F8011D521EE3
:10005000F9D210BD40EA01039B0703D009E008C9AB
:10006000121F08C0042AFAD203E011F8013B00F87D
:10007000013B521EF9D210BDD2B201E000F8012BB3
:10008000491EFBD270470022F6E710B513460A4618
:1000900004461946FFF7F0FF204610BD10B50022B8
:1000A00000E0521C835C8C5CA34201D1002BF8D190
:1000B000D8B2E1B2401A10BD30B504460020034664
:1000C00000E05B1C934203D2E05CCD5C401BF8D0A7
:1000D00030BD30B505460020034600E05B1C93426E
:1000E00005D2EC5CC85C201A01D1002CF6D130BDE1
:1000F0007CB507480090074801900546009C04E045
:100100002046016808448047241DAC42F8D17CBDDC
:10011000E48D1200E88D12002DE9F05F0546002005
:1001200092469B4688460646814640241BE0284668
:1001300041464746224600F048F853465A46C01A00
:10014000914110D311461846224600F02FF82D1A7F
:1001500067EB01084F4622460120002100F026F8F7
:1001600017EB00094E41201EA4F10104DFDC4846D4
:1001700031462A464346BDE8F09F00001CB50948B9
:100180000090094801900546009C06E0E06840F0B8
:10019000010394E8070098471034AC42F6D3FFF708
:1001A00043FF0000948D1200E48D1200202A04DB2E
:1001B000203A00FA02F1002070479140C2F120037A
:1001C00020FA03F3194390407047202A04DB203AB9
:1001D00021FA02F00021704721FA02F3D040C2F167
:1001E0002002914008431946704700002DE9F04F66
:1001F00088B041F200030646C4F2000317461868AF
:1002000040F20C0C6FF08002002F08BF6FF040022C
:10021000104018601868022EC2F2100C2CD0012E6B
:1002200018D0DEBB40F010004FF0FF3218604FF0E6
:100230000055DCF8000002EB500043F20062C0F20F
:100240006E1203925A68D20640D40028A0F1010031
:10025000F8D13BE040F010004FF0FF321860DCF8BE
:10026000000002EB500000BF5A68D20627D40028D5
:10027000A0F10100F8D122E040F008004FF0FF3279
:100280001860DCF8000002EB500000BF5A6812074B
:1002900015D40028A0F10100F8D110E040F02000B2
:1002A0004FF0FF321860DCF8000002EB500000BF96
:1002B0005A68920603D40028A0F10100F8D141F653
:1002C00000304FF08055C0F2B70003904AF600703E
:1002D00041F20042CFF6DA504EF600740844C1F6FF
:1002E000A8329042C0F61C5400F29380601C8DE846
:1002F000E00081424AF20020C0F24A404BF600473B
:100300005FEA2F9681424FF0000038BF0326079026
:1003100042F2001A4FF0FF3BCFF26A770020C1F2A1
:10032000385A0022CDE9050020204FF00109864609
:100330000CE004A84FF0000B079280E8201200BFE9
:1003400009F10109BEF1010E00D13BE003984FF223
:100350000073CFF6C27340F60015B0FBF9F0C0F29F
:100360003D050344AB42EBD8C30A4FF00C0C00EB45
:10037000400553434FEAC508400005E00CF1010C6D
:100380008044BCF5807FDBD008EB07045445F5D8EA
:1003900042F26C14002AC0F21104A45DB8FBF4F51B
:1003A0001CBFB3FBF4F425444C1B38BF6C1A5C45EE
:1003B000E4D2002CBDD0A34604AC079284E82012FE
:1003C000DCE700BF40F6FE70824204D8BBF1000FAC
:1003D00002F10102A8D14FF600600599CFF6FF7037
:1003E00041F2000300EB41200699029F0239C4F25A
:1003F000000341EA863140EA0100079940EA0140E2
:10040000009940EA010077B1186203F124008021CD
:100410000DE044F2354040EA05007FB1186203F177
:10042000240080210EE0986103F11C004021019E10
:1004300040F20C0C049CC2F2100C03E0986103F132
:100440001C004021026822F0030242EA0602026018
:10045000186840EA01001860DCF800004FEA50001C
:10046000A0F1010067B100BF596809060BD400284C
:10047000A0F10100F8D106E00028A0F1010002D0AF
:1004800059684906F8D5204608B0BDE8F08F00004D
:10049000C1F3C73141F200224FF0010CC0F38420B8
:1004A000C4F2000252F821300CFA00F0184342F86E
:1004B0002100704741F20001C4F200010A681043B4
:1004C0000860704741F20002C4F200029169D069ED
:1004D000126852065CBF00207047800741F600306A
:1004E000C0F2B70004BF43F20060C0F26E104A00D1
:1004F00048BF704710B5C1F3813E42F26C1C40F218
:10050000FE32C1F34424C0F2110C02EA41021CF88D
:100510000EC004F1010E8308043202FB03F40EFB4B
:100520000CF2C1F30B43B4FBF2F1002B4FEA810153
:10053000BDE8104004BF08467047C00A5843B0FBEE
:10054000F2F0084470470000F0B581B0461E41F259
:10055000000340F20C05032EC4F20003C2F21005A2
:100560004AD8DFE806F00238132519684FF0FF3249
:1005700041F004011960296802EB51015A685207E1
:100580004BD40029A1F10101F8D146E019684FF0E0
:10059000FF3241F010011960296802EB510100BFE0
:1005A0005A68D20639D40029A1F10101F8D134E00A
:1005B000064600200C46174600F08AF84EF60070FA
:1005C0000022C0F61C50874257EA30812046FFF7D0
:1005D0000DFE30463FE019684FF0FF3241F0200138
:1005E0001960296802EB51015A68920615D4002956
:1005F000A1F10101F8D110E019684FF0FF3241F08C
:1006000008011960296802EB510100BF5A681207FE
:1006100003D40029A1F10101F8D1D3F8081521F480
:100620007061C3F8081541F20C51C4F200010A6868
:1006300022F00F020A600A6822F0F0020A600A68DB
:1006400022F470620A600A6822F470420A600A6842
:1006500022F470220A6000F03BF8286801B0F0BD77
:1006600070B584460D465CEADF355FFA8CFE41F2D8
:10067000004CBEF1000FC4F2000C11D004460D4630
:1006800054EA5F7500F01F0604F47F746444D4F8E4
:1006900000510EFA06F625EA06063343C4F8003187
:1006A000044654EADF53E3B2002B08BF70BD4FF499
:1006B0007F7606EA5111C0F3441041EA0C010E683E
:1006C00003FA00F026EA00001043086070BD000045
:1006D0002DE9F04F81B041F2000440F20C06C4F263
:1006E00000044FF0FF32D4F804802168C2F21006F3
:1006F00041F008012160316802EB51016268120784
:1007000003D40029A1F10101F8D1D4F8001421F09B
:100710000701C4F8001431686268D20503D40029C7
:10072000A1F10101F8D142F21007C4F200073968C3
:1007300021F00301396031687A68B2F1FF3F03DCD0
:100740000029A1F10101F7D14CF200290428C0F6DB
:10075000EB3940F08180A269E16923685B0601D42E
:10076000002130E0890741F60031C0F2B70104BF33
:1007700043F20061C0F26E11530024D4C2F3813EF3
:1007800042F26C1C40F2FE33C2F3442AC0F2110C58
:1007900003EA420B1CF80EC00AF1010E8B080BF1A4
:1007A000040505FB03FA0EFB0CF3C2F30B45BAFB81
:1007B000F3F24FEA82022DB1C90A6943B1FBF3F1AA
:1007C000114400E01146494540F2080551EA898389
:1007D000B1EB530F41F20C52C2F21005C4F2000209
:1007E00029601AD9D4F80815012363F30B21C4F842
:1007F0000815116863F303011160116863F30711B1
:100800001160116863F30B211160116863F30F31FC
:100810001160116863F313411DE0D4F80855B1EB82
:10082000930F25F47065C4F80855156825F00F0579
:100830001560156825F0F0051560156825F47065DC
:100840001560156825F470451560156825F470214C
:1008500088BF01F58031116044F24C050A22C4F2D0
:100860000405296862F303012960D4F8001421F01B
:1008700007010843C4F80004306800BF6168C90577
:1008800003D40028A0F10100F8D100F0AFFE3068D9
:1008900009F101023968904221F0030138BF0131AA
:1008A00039603068014600BF7A68B2F1FF3F03DC6F
:1008B0000029A1F10101F7D143F64121C0F66951A8
:1008C000884204D328680A2161F3030055E04845B3
:1008D00004D92868092161F303004EE044F6C111F0
:1008E000C0F66E21884204D32868082161F3030012
:1008F00043E04DF28111C0F6F001884204D328682C
:10090000072161F3030038E045F64111C0F273712D
:10091000884204D32868062161F303002DE04EF2DB
:100920000111C0F2F551884204D32868052161F312
:10093000030022E046F6C101C0F27841884204D3A8
:100940002868042161F3030017E04FF28101C0F22F
:10095000FA21884204D32868032161F303000CE0E4
:10096000296847F64102C0F27D12904221F00F0043
:1009700034BF40F0010040F0020028605FEA0871D7
:100980005EBF206820F00800206001B0BDE8F08F55
:10099000B0B541F20000C4F200008269C169036889
:1009A0005B0601D400212DE0890741F60031C0F239
:1009B000B70104BF43F20061C0F26E11530021D4AD
:1009C000C2F3813C42F26C1E40F2FE34C2F3442575
:1009D000C0F2110E04EA42041EF80CC001358B0867
:1009E00004345C4305FB0CF3C2F30B42B4FBF3F598
:1009F0004FEA850C2AB1C90A5143B1FBF3F16144B6
:100A000000E0614640F20802C2F210021160D0F824
:100A1000002402F00702042A14D0012A04D101683C
:100A2000490705D400210DE00AA101EB820108E08D
:100A3000816842F25C12C0F21102C1F3014102EB83
:100A400081010968D0F8000500F00F000130B1FB0A
:100A5000F0F0B0BD001BB70000000000006CDC022D
:100A600000366E010000000040F20C0141F2040269
:100A7000C2F210010968C4F2000249081368034079
:100A8000834204BF01207047013904BF0020704732
:100A9000F4E70000FEE7000040F234004CF2006191
:100AA000C2F21000406BC2F2230100EB400001EBE8
:100AB0004020704770B582B048F2000140F2340423
:100AC000C4F220010546C2F2100401F5805220460E
:100AD0000023009508F088FA204608F081FE286877
:100AE000C4F8C400A888A4F8C800204608F06EFE28
:100AF00040F20C004BF27F21C2F210000068C0F6F9
:100B0000E661884201D914211FE04DF27F11C0F641
:100B1000F001884201D9102117E04EF2FF01C0F226
:100B2000F551884201D904210FE048F2FF61C0F27B
:100B30009331884201D9002107E040F6BF620821C5
:100B4000C0F21622904288BF0C21204608F08EFE8B
:100B5000204608F041FBC4F89C00204604F022FF28
:100B6000B0F1FF3F78DD40F2340440F20001C2F200
:100B700010041022C2F223012046012308F044FF92
:100B8000204608F0D7FB40F200212046C2F22301A4
:100B900020220123202608F019FF204608F0C4FB7C
:100BA00020464FF4025108F0C3FA1C212046C0F23F
:100BB000200108F0C5FA204608F060FC204608F045
:100BC000CDFD204608F08AFD40F20065C2F2230503
:100BD000204629464FF4C062002308F08DFE013EF6
:100BE00005F5C065F4D1204608F06EFA204608F0FD
:100BF00099FA4AF2E3112046C0F2010108F0C8FA5E
:100C0000204608F0A5FA204608F0B2FA04F1C40321
:100C100020464021442208F019FED4F8A81012A062
:100C200011F02EF8D4F8A810204608F031FE47F64F
:100C30009030C0F2120004F019FE4EF23F40C02185
:100C4000CEF2000001704EF20410CEF200004FF020
:100C50000041016002B070BD08A011F063FA0DA060
:100C600011F060FAFEE700BF4C696E6B207370658F
:100C700065642E2E2E2E2E2E25640A00656D61636E
:100C80003A3A20496E697420504859204641494CEF
:100C90002E0000000A3F3F3F20436865636B2074CD
:100CA000686520504859206465766963652E2E2E4C
:100CB00000000000B0B584B040F2340003A9C2F2D5
:100CC000100008F063FF044628B347F69030C0F2E6
:100CD000120004F02DFE48B30346039D46F6E520BE
:100CE0004FF4C06CC0F21000A1B2C3E904050020AB
:100CF0004122CDE9005C06F03BF8D8B140F200118A
:100D00000546C2F2100109680A699047B0B1284649
:100D100006F046FA12E040F234004AF2E311C2F261
:100D20001000C0F2010108F033FA07E00FA011F043
:100D3000F9F903E003A009A110F0A2FF204604B0D6
:100D4000B0BD00BF2573203A206661696C656420E0
:100D5000746F20616C6C6F7465640A00454D41438B
:100D60005F52656365697665506B74004C574950F6
:100D70005F4D454D504F4F4C5F414C4C4F43203CD5
:100D80002030212100000000B0B582B000281CBF37
:100D90000D46002903D14FF0FF3002B0B0BD04462C
:100DA00040F23400C2F21000406C08F0FDFA002856
:100DB000F1D140F234002146C2F210002A4600254B
:100DC0000023009508F0A2FE02B0B0BD70B54FF050
:100DD000100E0023F6464FF0030C002406E000BF7F
:100DE00001340233BEF1010E00D10CE021FA04F50A
:100DF000ED07F5D005680CFA03F6B54302FA03F6E1
:100E000035430560ECE770BD70B54FF0100E002360
:100E1000F6464FF0030C002406E000BF0134023315
:100E2000BEF1010E00D10CE021FA04F5ED07F5D07A
:100E3000856A0CFA03F6B54302FA03F63543856278
:100E4000ECE770BDEFF30581A1F110011EF0040F76
:100E50000CBFEFF30880EFF3098000F08BB90000BE
:100E60004DF200004FF4E131C4F2240000F016BC52
:100E7000F0B54EF6C0521027CEF2000213680028DB
:100E800023F0FF031360136867F30F2313604FF021
:100E90002207136867F3174313604FF03307136893
:100EA00067F31F6313604FF04407536867F307034A
:100EB00053604FF0AA07536867F30F2353605368DA
:100EC00043F47F0353604FF0000342F8283C40F2A4
:100ED0000303C6F2000342F8243C4FF6E173C6F266
:100EE0002F0342F8203C4FF0010342F8283C40F227
:100EF0000203C8F2F01342F8243C4FF6ED73C8F237
:100F0000FF3342F8203C49D0042984BF4FF0FF3022
:100F1000F0BD01290DD14FF0020EA2F1240142F8DB
:100F200028EC00BF50F8043B41F8043B0FF007C029
:100F300034E0CB1E002713F1060F42F8287C1FD89F
:100F400000234FF0020C00BFCCF1040605464FEA27
:100F5000460E02EBCC07A7F1240400BF55F8047B32
:100F600044F8047B0FF007C000EBC600891B043374
:100F700004294FF0000C42F8283CE5D819B90DE0DF
:100F80004FF0100C51B14FEA410E02EB0C01243925
:100F900050F8043B41F8043B0FF007C0052040F235
:100FA000F02CBFF35F8F42F82C0C40F2F42352F880
:100FB0009C0CC2F2100C40F4803042F89C0C40F2C1
:100FC0000000BFF34F8FC2F22300BFF36F8FC2F256
:100FD000100358B140F20001C2F2250131B11F31B6
:100FE000CCF8000021F01F01481E18601868DCF8DA
:100FF000001088424FF0000040F2878042F83C0C1D
:1010000043F6E075BFF34F8F52F8AC0C20F48030FC
:1010100042F8AC0CBFF34F8F52F8401CC1F34E3076
:10102000C1F3C907C9087E1C8907440146F001E0E5
:1010300004EA05070F4400BFC2F8B47107F1404746
:101040000FF007C00028A0F10100A4F12004EDD1A9
:10105000BFF34F8FBFF36F8F5068442161F30700D8
:10106000506018680923DCF8001063F3040021F0D5
:101070001F01072342F8283C42F8241C42F8200CA8
:101080000520BFF35F8F42F82C0C52F89C0C40F403
:10109000803042F89C0CBFF34F8FBFF36F8F52F834
:1010A000AC0CC0034FF0000048BFF0BD42F83C0C50
:1010B00043F6E075BFF34F8F52F8401CC1F34E303A
:1010C000C1F3C903C9085E1C8907430146F001E06A
:1010D00003EA05070F4400BFC2F8A07107F14047BB
:1010E0000FF007C00028A0F10100A3F12003EDD10B
:1010F000BFF34F8F52F8AC0C40F4803042F8AC0C88
:101100000020BFF34F8FBFF36F8FF0BD00000000D2
:10111000EFF309801EF0100F08BF20ED108AEFF3E7
:101120000B82734620E9FC0F114A116808604FF0EA
:10113000A00080F31188BFF34F8FBFF36F8F0FF0C4
:1011400063FB4FF0000080F31188094A11680868BA
:10115000B0E8FC0F13F0100F08BFB0EC108A82F358
:101160000B8880F30988184700BF00BF00BF00BF8D
:10117000609A10202DE9F04383B0B0B14EF62855A7
:101180000646CEF200052F68D5F81090D0F81880EA
:101190004BF6AB60B8F8004084420AD108F1020176
:1011A0007069B16103B0BDE8F083002003B0BDE811
:1011B000F08347F66F40C0F2120010F0B3FF06F163
:1011C00014033EA00ECB10F05BFDEB68394647A040
:1011D0004A4610F055FD51A0214610F051FD200B5C
:1011E000052816D1C4F38215C4F3C20704F0070919
:1011F00047F65440C0F2120049462A463B4610F0DA
:101200003FFD56F8270056F8251056F829600F18AC
:1012100028E004F46041B1F5C04F0AD1C4F3841949
:10122000C4F3C20747F61E4004F00705C0F21200DF
:101230000DE009282DD0082839D147F6FF3004F0F9
:101240000705C4F38419C4F3C207C0F2120029468B
:101250003A464B4610F014FD56F8270000EB0907FC
:1012600056F82560200547F6844147F68840C0F2CD
:101270001201C0F21200224650EA518347F6DF30D5
:101280004146C0F21200CDE9006710F0F9FC00BF42
:10129000FEE7C4F3022547F63B40E2B2C0F212007B
:1012A000294610F0EDFCB06950FA84F7D8E747F60C
:1012B0008C40C0F2120010F035FFE9E7202020201A
:1012C000504320203A203078253038582C204C527A
:1012D00020203A203078253038582C20585053524E
:1012E000203A203078253038580A0000202020206D
:1012F000434653523A203078253038582C20424605
:1013000041523A203078253038582C204D4D4641F6
:10131000523A203078253038580A0000496E7374EC
:1013200072756374696F6E20636F6465203D20255C
:10133000780A000040F2000042F20C41C2F20200C2
:1013400080F309884FF60000C5F24001C2F20100A7
:1013500080F30A8880F30B880868C00738D140F210
:1013600000115920C4F200011622882308600A6087
:101370000B600D6815B92FF007C800BF51F8D40CE9
:101380000028FBD4002242F20410C4F2000041F80D
:10139000D42C0168002918BF0260416800291CBFD5
:1013A000002141604EF20051CFF648710268002AD8
:1013B00003D44268B2F1FF3F02DC09B10131F5E725
:1013C00041F2C020C4F20000016841F00601016052
:1013D00040F20C0141F60032C2F210014EF61450F8
:1013E000C0F2B702CEF200000A60416F41F4700112
:1013F00041674EF20031CEF201010A6822F44072D8
:101400000A600A6842F010020A600021BFF34F8FA1
:10141000BFF36F8FC0F83C12BFF34F8FBFF36F8FD6
:101420000268920311D4BFF34F8FBFF36F8FC0F8E0
:101430003C12BFF34F8FBFF36F8F026842F400324C
:101440000260BFF34F8FBFF36F8F016743F6E07CFD
:10145000BFF34F8FC26EC2F34E31C2F3C903D2083D
:101460005C1C92074B0100BF44F001E003EA0C054D
:10147000154400BFC0F84C5205F140450FF007C0BD
:101480000029A1F10101A3F12003EDD1BFF34F8F9A
:10149000BFF36F8F0168C9032AD4002143F6E07CB3
:1014A0000167BFF34F8FC26EC2F34E31C2F3C9035F
:1014B000D2085C1C92074B0144F001E003EA0C05E2
:1014C000154400BFC0F84C5205F140450FF007C06D
:1014D0000029A1F10101A3F12003EDD1BFF34F8F4A
:1014E000016841F480310160BFF34F8FBFF36F8F0C
:1014F00000F002F8FEF794FD80B54EF6007204206D
:10150000C0F61C520221FFF71FF8BDE8804000F032
:101510006DB80000000000000000000000000000A6
:101520001EF0040F0CBFEFF30880EFF309800449AD
:10153000084700BF00BF00BF00BF00BF00BF00BF23
:1015400029FC1000010D4FF080426FF31F504FF047
:10155000010C8B580CFA00F003438B508B5823EA94
:101560000000885070470000B0B51020FEF7A2FFC1
:101570001020FFF779FA48F2000440F60745C8F258
:1015800087340122C0F21C05204629460023FFF7BC
:1015900067F820462946FEF77BFF4FF03350BDE841
:1015A000B040FFF7CFBF000040F21C300622C4F26B
:1015B0000000016862F304010160016862F30C211C
:1015C0000160704710B50EF0E5F9044610F076F8AA
:1015D00000281FBF4EF60450CEF200004FF080519D
:1015E00001602046BDE810400EF020BA80B5FFF73C
:1015F000CFF900F5F4214DF6836201F59071C4F244
:101600001B32A1FB021240F20C01C2F21001086071
:1016100040F20401900CC2F21001086080BD00008D
:10162000B0B54EF614500021CEF2000043F6E07C37
:101630000167BFF34F8FC26EC2F34E31C2F3C903CD
:10164000D2085C1C92074B0144F001E003EA0C0550
:10165000154400BFC0F8585205F140450FF007C0CF
:101660000029A1F10101A3F12003EDD140F2000115
:10167000BFF34F8FC2F20001BFF36F8F40F80C1C15
:10168000016841F4002101600020BFF34F8FBFF3D8
:101690006F8F0021BDE8B040FFF7EABBF0B585B021
:1016A000044642F24810C0F211000D4690E88E0048
:1016B000002600698DE88E004CF6FF71C4F2280107
:1016C0008C42049022DC4EF6FF70C4F22400844267
:1016D0003DDD4FF20000C4F22400844200F081801E
:1016E0000020C4F22500844200F0938041F2000003
:1016F0000027C4F22500844240F0A18041F26040FE
:10170000C4F200004168D0F8E00059E04EF6FF70E6
:10171000C4F22800844233DD4FF20000C4F22800F6
:1017200084426AD00020C4F2290084427DD041F274
:1017300000000027C4F22900844240F0808041F27A
:101740006040C4F200004168D0F8E00044E04DF28F
:101750000000C4F2240084422BD04EF20000002787
:10176000C4F2240084426AD141F26040C4F2000015
:101770000168D0F8DC00C1F30227C0F303265EE065
:101780004DF20000C4F2280084421ED04EF2000048
:101790000027C4F22800844251D141F26040C4F2D3
:1017A00000000168D0F8DC00C1F30237C0F3033653
:1017B00045E041F26040C4F200000168D0F8DC006E
:1017C00001F0070700F00F0639E041F26040C4F273
:1017D00000000168D0F8DC00C1F30217C0F3031663
:1017E0002DE041F26040C4F200000168D0F8DC0056
:1017F000C1F30247C0F3034621E041F26040C4F266
:1018000000000168D0F8DC00C1F30257C0F30356B2
:1018100015E041F26040C4F200000168D0F8DC003D
:10182000C1F30267C0F3036609E041F26040C4F20D
:1018300000000168D0F8DC00C1F30277060F002039
:101840004FF60F7120630320E060A068CFF6F071BF
:101850000840032FA06003D1FEF734FE4008039038
:10186000CDB16846711C50F82700B0FBF1F000EBD9
:101870005501B1FBF5F10239B1F5803F08D300EB1A
:10188000C5006FF00101B0FBF5F001EB101001E0B5
:1018900041F04050606205B0F0BD0000F0B581B08D
:1018A00000286ED00646044656F8140F002868D06B
:1018B00000295ED00F4662B147F6FE4048F6B733C6
:1018C000C0F2120040F22A2243A1C0F2120310F02B
:1018D000D7F92078616A04F035FA002855D005461A
:1018E00047603846294608F01DFE48F6454138460F
:1018F000C0F210010BF02EFE48F6D9613846C0F256
:1019000010010CF0D7F947F2E1513846C0F210014E
:1019100002220AF029FE41F6D9213846C0F2100110
:1019200009F0E4F93046294608F0FEFAB8B36C68CD
:1019300000210026204608F0F5FD204600210BF08E
:1019400009FE204600210CF0B5F9204600210022B6
:101950000AF00AFE2046002109F0C8F905F110003E
:101960006E6008F0C5FA28462E6104F051FBFF2492
:1019700008E047F6D0313046C0F2120108F0D4FA40
:10198000A8B1FA2460B201B0F0BD47F6D0313046BC
:10199000C0F2120108F0C8FA90B1FF24F2E7636ABE
:1019A000BBB120460021002200249847EAE7636A81
:1019B000002B1FBF2046002100229847FA24E1E7B0
:1019C000636A002B1FBF2046002100229847FF2496
:1019D000D8E70024D6E700BF657870656374206E91
:1019E0006577706362203D3D204E554C4C206F72F0
:1019F00020657272203D3D204552525F4F4B0000E2
:101A00004DF68010C2F21100006858B94DF6402022
:101A1000C2F21100006828B94DF67C10C2F2110024
:101A2000006808B1002070474DF60C204DF6E40127
:101A3000C2F211000122C2F21101006809680139E5
:101A4000884252EA12907047F0B581B0F0B1044676
:101A500049F66020C2F210000068844219D00EF0EE
:101A600089F849F668206569C2F21000076849F6EE
:101A70006C20C2F2100006680EF08CF8BD424FF0E8
:101A8000020018BFB54207D101B0F0BD0DF082FFD2
:101A9000FEE7002001B0F0BD4DF60C20C2F21100AF
:101AA00085420CD001204DF62021002D08BF0420D6
:101AB000C2F211018D4208BF042001B0F0BDA06A3E
:101AC00000284FF00200DFD194F85410012950EAA9
:101AD000009001B0F0BD0000F0B581B004460D46A5
:101AE00078B947F6FE4048F6AA3148F6B733C0F257
:101AF0001200C0F212014FF4DC72C0F2120310F0B7
:101B0000BFF808F09FF9227F0021677842F00102B8
:101B1000616025722277617008F0BEF9636A1BB1BB
:101B20002046042100229847636A1BB12046002109
:101B300000229847636A1BB1204602210022984781
:101B400005F10F000F2817D847F6D036C0F212065D
:101B5000DFE800F0080D1F121212121212121212F8
:101B60001212121E47F6D136C0F2120611E047F6E5
:101B7000D236C0F212060CE047F6FE4048F6B73304
:101B8000C0F212007D2233A1C0F2120310F078F8E7
:101B90000026204650F8101F00291CBF314608F0CF
:101BA000C3F9204650F8141F00291CBF314608F025
:101BB000BBF9042F3AD80120B84010F01A0F35D0E5
:101BC000207F00F0FB014007217741D4206A78B9DB
:101BD00047F6FE4048F6903148F6B733C0F212009F
:101BE000C0F212014FF4F372C0F2120310F048F881
:101BF000206A391F55EA11810668017156F80C2FC9
:101C000062B947F6FE4048F6B733C0F2120040F220
:101C1000EF1214A1C0F2120310F032F80021304686
:101C2000216201B0BDE8F04008F0CCB9206A78B17B
:101C300047F6FE4048F6B733C0F2120040F2F71202
:101C40000FA1C0F2120301B0BDE8F04010F018B8C7
:101C500001B0F0BD756E68616E646C65642065727C
:101C6000726F7200696E61766C6964206F705F6379
:101C70006F6D706C657465645F73656D0000000066
:101C8000636F6E6E2D3E63757272656E745F6D73F9
:101C900067203D3D204E554C4C0000004DF6F4149D
:101CA000C2F21104204608F08DF900BF2046002141
:101CB00008F0CEF80130F9D0FEF7FCFF0128FBDA7E
:101CC000F4E700002DE9F04F83B0019140F20811D4
:101CD000C2F210014FF00A0E01F1120500260A218E
:101CE0004FF0000C4FF0000A4FF0000B0A244FF0A9
:101CF0000A090291AF78A3B20A2B08BF002F19D0AE
:101D000097B348B1036855F80E1C8B4204D1F2B169
:101D100055F80A1C8A421AD0012F0FD155F8121C0F
:101D20002F88C1B11FFA8BF18F425EEA368E57EAD7
:101D3000818B19E04FF00108344617E029881FFA1B
:101D40008CF3994259EA368951EA838C0CE04FF0C2
:101D5000000800960AE01FFA8AF1029B8F4253EABC
:101D60003683029357EA818A4FF00108B8F1000FD9
:101D700030D0013618350A2EBCD1019B4FF6FF77C3
:101D8000990728D4D90704BFA1B20A2923D021B2C8
:101D900040F208180A29C2F2100857DB0FFA89F33B
:101DA000092B1CDC03EB430158F8311011B347F643
:101DB000FE430446C0F212031546184648F698033F
:101DC0003BA140F26D12C0F212030FF059FF204602
:101DD0002A460FE0009F38B203B0BDE8F08FDDF86F
:101DE00008900FFA89F10A2904DB0FFA8EF1F14607
:101DF0000929F0DC0FFA89F40A2C14DB47F6FE43BC
:101E000048F65E01C0F212030546184648F69803EC
:101E1000C0F212011646C0F2120340F27F120FF018
:101E20002FFF2846324604EB440358F8331008EBE2
:101E3000C30441B105460846164605F0B1F92846E7
:101E4000324600212160002121754C4627B206460A
:101E500015460A2F0FDB47F6FE4048F65E0148F6AE
:101E60009803C0F21200C0F2120140F28312C0F2D5
:101E700012030FF005FF07EB470008EBC007387DA2
:101E800060B147F6FE4048F69803C0F2120040F2F7
:101E900085120DA1C0F212030FF0F2FE002E1CBF3E
:101EA000306878600020BD607882274693E700BFE5
:101EB0006172705F7461626C655B695D2E71203D5B
:101EC0003D204E554C4C00006172705F7461626C35
:101ED000655B695D2E7374617465203D3D204554DA
:101EE000484152505F53544154455F454D505459F9
:101EF000000000002DE9F04786B0F1B147683A884C
:101F0000B2F5807F14D13A79062A11D17A79042A60
:101F10000ED17A88082A0BD10C46D7F80E3054F827
:101F2000042F0593E2B1BB6993425FEA1F9518E065
:101F300006B0BDE8F04705F033B947F6FE4048F675
:101F4000710148F69803C0F21200C0F2120140F28B
:101F50008A22C0F2120306B0BDE8F0470FF090BE2F
:101F600000258A4691F82810002D4FF0010252EA10
:101F70001299062907F1080806460DD047F6FE40DB
:101F800048F69803C0F2120040F2A9122FA1C0F245
:101F900012030FF075FE30460599E9B30846514625
:101FA00001F0A0F801463046B1BB059901F0F001FF
:101FB000E02931D005A849465246FFF783FE014685
:101FC0003046002928D401EB410240F2081C0223CC
:101FD000C2F2100C0CEBC2015CF8329000220B75BF
:101FE000C1F808A0D8F80030B9F1000FCB60B8F8FC
:101FF00004304A820B820FD00A6050460AF1220256
:102000004FF4006C49464346CDF800C000F0CCFBCD
:10201000484605F0C5F8304695B1F988B1F5807F9E
:102020000ED10AF1220105AA022702925046424629
:102030000B460094CDF80480039700F057FA304621
:1020400005F0AEF806B0BDE8F08700BF6E657469B4
:10205000662D3E6877616464725F6C656E203D3DFD
:10206000204554485F4857414444525F4C454E0018
:1020700070B584B0164605460C4658B1E4B16EB34F
:102080003068294601F02EF8C8B347F68F23C0F216
:10209000120349E047F6FE4048F6710148F69803FE
:1020A000C0F21200C0F2120140F21E32C0F212035E
:1020B0000FF0E6FD002CE2D147F6FE4048F67F0126
:1020C00048F69803C0F21200C0F2120140F21F322B
:1020D000C0F212030FF0D4FD002ED1D147F6FE401E
:1020E00048F6890148F69803C0F21200C0F21201C6
:1020F0004FF44872C0F212030FF0C2FDC0E730681F
:1021000000F0F001E0291BD101207178ADF80A0040
:102110005E208DF80C000DF10A0301F07F0071883C
:102120008DF80D00ADF80E1005F122024FF4006697
:1021300028462146009600F037FB40B204B070BD3F
:1021400081B24FF6A96291421EBFD5E90112484003
:1021500010EA020040D140F2FC1C40F20811C2F229
:10216000100C9CF80020C2F2100102EB420001EBBF
:10217000C000017D012909D98168A94206D13168D1
:102180004068814202D12846214618E040F20810FA
:102190000023C2F2100003E0013318300A2B13D0E1
:1021A000017D0229F8D38168A942F5D131684268DE
:1021B0009142F1D1DAB2284621468CF8003004B0C1
:1021C000BDE8704000F010B828463146224604B001
:1021D000BDE8704000F07EB82E4656F80C0F00287F
:1021E000B9D1FC20A9E7000070B584B002EB42022F
:1021F00040F208130C46C2F21003054603EBC20678
:10220000327D012A0CD847F6FE4048F69803C0F20A
:10221000120040F2EF2223A1C0F212030FF030FDB2
:10222000307D022831D1708AB0F58E7F11D92A1DF8
:1022300047F69523301DC0F21203009247F68F2215
:1022400005F122014FF0010CCDE90130C0F212027C
:1022500011E0B0F5877F18D347F6952C2B1DC0F2FF
:10226000120C301D06F10C0205F12201CDE9003CF3
:102270004FF0010C029028460B46CDF80CC000F040
:1022800035F9002804BF0320307505F1220206F15C
:102290000C034FF4006628462146009600F084FAAD
:1022A00004B070BD6172705F7461626C655B617275
:1022B000705F6964785D2E7374617465203E3D20A3
:1022C0004554484152505F53544154455F53544123
:1022D000424C45002DE9F04784B00F460968054699
:1022E00091460846294600F0FDFE08B1F02607E0B9
:1022F0003868F02600281CBF00F0F000E02803D169
:1023000070B204B0BDE8F087384601212A46FFF7D5
:10231000D9FC0446B0F1FF3F68DD7F2C0CD347F6B3
:10232000FE4048F69803C0F2120040F2C1325AA1B2
:10233000C0F212030FF0A4FCE0B240F2081140001A
:1023400005F1220850FA84F0C2F2100101EBC00A34
:102350009AF81460002E02BF01208AF81400CAF80F
:1023600008509AF8140060B947F6FE4048F6980302
:10237000C0F2120040F2CF324BA1C0F212030FF0B4
:102380007FFCB9F1000F18BF002E59D147F69521F7
:10239000281DC0F2120147F68F2200900126CDE9D8
:1023A0000117C0F21202284641464346039600F048
:1023B0009DF8B9F1000F0646A2D0B9F1000F43D045
:1023C0009AF81400022813D340F2FC100AF10C030F
:1023D000C2F210004FF40067047028464946424696
:1023E000009700F0E1F904B0BDE8F087264687E7E2
:1023F00001287FF485AFB9F1000F1DD047F6FE44E8
:1024000048F69806C0F212044F4631A5C0F21206F3
:1024100078893989884208D1386830B12046294600
:1024200040F2F13233460FF02BFC387B40061CD4CF
:102430003F680FB12FF015C0484605F069F81BE062
:10244000FF26B9F1000FBBD147F6FE4048F67F01E9
:1024500048F69803C0F21200C0F2120140F2E132D5
:10246000C0F212030FF00CFCAAE70E204FF420710B
:102470004A4604F02DFD8146B9F1000F09D0DAF883
:102480000000002818BF04F08BFE0026CAF8009058
:1024900036E7FF2634E700BF74797065206F7665F4
:1024A00072666C6F770000006172705F7461626CBD
:1024B000655B695D2E7374617465203D3D205045F8
:1024C0004E44494E47206F7220535441424C4500C0
:1024D0006E6F207061636B657420717565756573CF
:1024E00020616C6C6F776564210000002DE9F04F6E
:1024F00081B01F4690460546894678B947F6FE40AA
:1025000048F6710148F69803C0F21200C0F21201B9
:1025100040F25742C0F212030FF0B2FB0E201C2112
:102520004FF4207204F04EFB002855D00446408939
:10253000DDF834A01B280CD847F6FE4048F6980377
:10254000C0F2120040F2634226A1C0F212030FF063
:1025500097FBDDF82CB05046666801F053FE95F805
:102560002810F08006290FD047F6FE4048F61D01DE
:1025700048F69803C0F21200C0F2120140F26A421B
:10258000C0F212030FF07CFBB88821464A4643464E
:10259000B081386840F60607B060DBF80000C6F886
:1025A0001200BBF80400F0820A980068C6F80E001A
:1025B0000C980068B06140F20010C0F20800306072
:1025C00040F20640B0802846009700F0EDF8204623
:1025D00004F0E6FD002000E0FF2040B201B0BDE8BD
:1025E000F08F00BF636865636B2074686174206658
:1025F0006972737420706275662063616E20686F03
:102600006C64207374727563742065746861727091
:102610005F6864720000000080B584B0021D47F658
:10262000952C00F12203C0F2120C009247F68F2283
:102630004FF0010EC0F21202CDE901C11946CDF8EA
:102640000CE0FFF753FF04B080BD00002DE9F04F10
:1026500085B040F2081047F69529C2F2100047F6FF
:102660008F2B00F114050A2600274FF00108C0F255
:1026700012094FF0020AC0F2120B042408E000BF56
:102680002F70013E05F1180504BF05B0BDE8F08FBD
:1026900028780028F5D035F8021C4A1C91B225F89C
:1026A000022C8B084A2B03D801280AD1052908D30C
:1026B00055F8140C0028E3D004F072FD45F8147CA2
:1026C000DEE7012808D0042803D0032808BF2C70B7
:1026D000D7E785F800A0D4E755F80C0CA5F1100257
:1026E00002925A4600F12201031DCDE900390B4642
:1026F000CDF80C80FFF7FAFEC3E7000070B5428901
:102700000F2A48D3C27B1AB991F82C200132C27328
:10271000426813789489DE071BD0012B06D15378C9
:10272000BBB992785E2A14D110220FE047F68F23AE
:102730000546C0F2120310460E4619460622FDF762
:10274000BBFC0246314628461AB90822437B1A438D
:102750004273B4F5C16F12D0082C1CD191F8292016
:10276000120718D50D460E21044604F0F3FE02466A
:10277000204682B9294600F0FBFD002070BD91F88B
:102780002920120707D50D460E21044604F0E2FE6B
:10279000024620461AB104F003FD002070BD294610
:1027A000FFF7A8FB002070BD2DE9F0410C4606990B
:1027B00080461F460846164601F024FD0546204681
:1027C0000E2104F0C9F900281CBF6FF00100BDE81C
:1027D000F08160688581B988818039680160B1883D
:1027E00041813168C0F8061098F82800062809D001
:1027F00048F61A5307A011A140F23312C0F2120397
:102800000FF03EFAD8F8182040462146BDE8F041C6
:10281000104700BF417373657274696F6E20222583
:102820007322206661696C6564206174206C696E36
:102830006520256420696E2025730A006E65746921
:10284000662D3E6877616464725F6C656E206D759D
:102850007374206265203620666F72206574686527
:10286000726E65745F6F757470757421000000007E
:1028700010B582B0044648B947F6A3432DA037A14E
:102880004FF4B672C0F212030FF0FAF940F20010E2
:10289000C2F210000460042002F036FD48B342F298
:1028A000710144F2F502C0F21001C0F21002C4E955
:1028B000051242F6066104F12202C6F66561E06186
:1028C000A162026040F21000C2F210000188D0F84C
:1028D0000220618440F2DC5162622184FEF7EAF852
:1028E0004DF6F4100021C2F2110007F04FFB10B1B9
:1028F000FEE7FF2419E041F69D4102241BA00022BF
:10290000C0F210014FF48063009407F061FB4DF6B4
:10291000F811C2F21101086050B14DF6F410002117
:10292000C2F21100002407F093FA60B202B010BDA9
:10293000FEE700BF417373657274696F6E202225D4
:102940007322206661696C6564206174206C696E15
:102950006520256420696E2025730A006E65746900
:102960006620213D204E554C4C0000006574685F88
:1029700072780000C1B20A294DF20001C4F22401AC
:1029800006D100BF8A691202FCD40D220A6000BF82
:102990008A691202FCD408607047000040F20021EE
:1029A0000A22C2F2100104E0013A01F1180108BF45
:1029B00070478142F8D100200875704770B540F229
:1029C000002405460A20C2F2100400BF217D29B16F
:1029D000013804F11804F9D1002401E00120207528
:1029E000002C04BF002070BD47F6C426C0F21206BA
:1029F00071682846FDF752FB88B136680EB12FF09A
:102A000009C840F200200A21C2F21000A04211D0F1
:102A1000013900F1180004BF002070BDF6E7D6E9C7
:102A20000201C4E90001A1600020317CE060204681
:102A3000217470BD00240475204670BD80B582B03D
:102A400042F669214FF0020C05A00022C0F21001ED
:102A5000C823CDF800C007F0BBFA02B080BD00BFAC
:102A60004854545000000000B0B582B0102000213E
:102A7000002203F075FB38B100215022044603F018
:102A8000BBF938B113A000E00CA002B0BDE8B04023
:102A90000FF0F6B82046FF2103F02EFB01AD00BF7A
:102AA0002046294603F0D4F8019808B92FF009C050
:102AB00000F01CF8019803F007FAF1E763616E205B
:102AC0006E6F7420637265617465206E6574636FE8
:102AD0006E6E000063616E206E6F742062696E64BA
:102AE000206E6574636F6E6E0000000070B584B078
:102AF00003A9044603F0D6FB039800283ED02046E5
:102B000003F078FAD0BB039802A90DF1060203F096
:102B10002FF8BDF80600052830D3029D05221BA121
:102B20002846FDF7D6FA48BB1AA128460F22FDF722
:102B3000D0FA98B11EA128460F22FDF7CAFA47F62F
:102B4000D336C0F2120650B11DA128460622FDF769
:102B5000C0FA1DA1002856EA018600E011A6304601
:102B6000FFF72CFFD0E9001205462046002600237F
:102B7000009603F01DFD2846FFF710FF204603F0E6
:102B800077F9039803F052F804B070BD474554201C
:102B90002F000000474554202F696D672F6D342E9C
:102BA0006A7067002F696D672F6D342E6A70670039
:102BB000474554202F696E6465782E68746D6C00EB
:102BC000474554202F2000002F3430342E68746D78
:102BD0006C0000000A46032100F0F8B82DE9F04728
:102BE00084B040F218343C23C2F21004A7683A784B
:102BF00003EA8205142D18D34289042A15D34268AA
:102C00001278082A11D1626902F0F003E02B0CD08F
:102C1000894621680646104600F064FA08B130463D
:102C200003E031893046082904D204B0BDE8F047FA
:102C300004F0B6BA00F06AF90028F0D105F10E08E8
:102C40003046414603F088FF48B131894A1991B2B4
:102C5000914217D0304600210029E6D045E03046A9
:102C6000414604F077FC90B347F6FE4048F6E9038E
:102C7000C0F21200C72248A1C0F212030FF000F800
:102C80003046D2E70E204FF4207203F09BFF40B392
:102C9000418905F108028A4221D8416880462A46C6
:102CA00008463946FDF7C8F940462946474604F02C
:102CB00051FC70B147F6FE4048F6E903C0F212003D
:102CC000B62227A1C0F212030EF0DAFF06E030466A
:102CD0000BE03846314604F01DF9B8B3384604F02D
:102CE0005FFA0021304600299FD046682946804679
:102CF00003F032FF40BB54F8140F0822D8F80470D8
:102D00004FF0000A86F800A0F86054F8041C7088A0
:102D100039614FF6F771884252EA92910844294688
:102D20007080FF2038723846A7F80AA000F0B4F887
:102D300078810120CDE900A0404621460022FF23F2
:102D4000CDF8089000F0F2FB40466EE7304604F004
:102D500027FA0121384600293FF467AFC5E700BFD5
:102D600069636D705F696E7075743A206D6F766916
:102D70006E6720722D3E7061796C6F616420746F94
:102D80002069636D702068656164657220666169A1
:102D90006C65640A0000000069636D705F696E70A5
:102DA00075743A20726573746F72696E67206F7202
:102DB0006967696E616C20702D3E7061796C6F611E
:102DC00064206661696C65640A0000002DE9F041C9
:102DD00084B090460E460746222024214FF42072EC
:102DE00003F0F0FED0B30446408923280CD847F600
:102DF000FE4048F6E903C0F2120040F2691219A140
:102E0000C0F212030EF03CFF65681C227F6885F853
:102E100001804FF0000805F1080039462E70C5F812
:102E20000480FDF709F9F868039003A800F09AFF01
:102E300088B1618906462846A5F8028000F02CF882
:102E400068800120CDE9008003AA20460021FF23ED
:102E5000029600F06BFB204604F0A2F904B0BDE836
:102E6000F08100BF636865636B20746861742066DD
:102E70006972737420706275662063616E20686F7A
:102E80006C642069636D70206D65737361676500A4
:102E90000A460B21FFF79ABF4FF0000C51B110F01A
:102EA0000102034607D00346013913F8012B4FEA0C
:102EB000022C00E0034610B503290A46A8BF0322EE
:102EC00002290EDB8A1A02F1010E012202EB5E0ECC
:102ED000002200BF33F8024B023922440FF007C032
:102EE00000E0002201290CBF1978002141EA0C0101
:102EF00011440A0C12FA81F1C00701EB11410ABA20
:102F000018BF110CC84380B210BD000000284FF05C
:102F1000010C58D02DE9F0430023002225E000BF2A
:102F20000027012E0CBF2E78002646EA08063744FB
:102F30003E0C16FA87F75FEAC97507EB174701F0F1
:102F400001013EBA18BF370C12FA87F2002B4FEA84
:102F5000124717FA82F25FEA1F9716BA002918BFC4
:102F6000320C006853EA078338B341894FF00008F8
:102F7000D0F8049061B119F001074D460E4609D012
:102F80004D464E1E15F8017B4FEA072802E000BFB0
:102F90004D460E46032E3746A8BF0327022EBFDB41
:102FA000F71B01370CEB570E002700BF35F8024B1B
:102FB000023E27440FF007C0B3E7002B5FEA1F9CD7
:102FC000BDE8F04300E0002210BABCF1000F08BFDA
:102FD000020CD04380B270472DE9F04F81B01B68DE
:102FE00090460A9F8C461E0C4FF0010A16FA83F396
:102FF0003F68002813FA87F303EB17424FEA1241A8
:1030000011FA82F14FEA114212FA81F552D00023EF
:1030100025E000BF0027012C0CBF3678002646EAC9
:10302000090139440F0C17FA81F15FEACB7601EB05
:1030300011410FBA18BF390C15FA81F1002B4FEA74
:10304000114717FA81F502F001015FEA1F922FBACA
:10305000002918BF3D0C006853EA028338B3428947
:103060004FF00009D0F804B062B11BF001075E46D2
:10307000144609D05E46541E16F8017B4FEA072914
:1030800002E000BF5E461446032C2746A8BF032774
:10309000022CBFDBE71B01370AEB570E002700BFEE
:1030A00036F8021B023C0F440FF007C0B3E7002BB9
:1030B0005FEA1F9A28BABAF1000F08BF050C6046F4
:1030C00001F0A0F82C18404601F09CF82044010CB7
:1030D00011FA80F000EB1040C04380B201B0BDE8AF
:1030E000F08F0000421C022A3CBF0120704791F87B
:1030F0002920920702D54A68904201D100207047EA
:10310000896842400A40084362EA000000285FEAFA
:103110001F9070472DE9F04F8DB047688246387890
:1031200000F00F00052823D1BAF80A00132840F256
:10313000E280F88815460C8C0E4601F063F8BAF868
:103140000810A1F11402110400F0E680A4F11401AA
:103150004FF0000801EB5171CDE90565C910142548
:103160000391C9008CB204900B90029407973DE044
:10317000FA26D2E00B9F059C04983A466FF35F3223
:10318000238C410B104661F34D30A3F11401099BD0
:1031900045449942B8BF02F5005001F033F8DDF81C
:1031A00020B0ABF806000C98143080B201F02AF879
:1031B000ABF80200002658461421ABF80A60FFF76E
:1031C0006BFE63694946069AABF80A0020469847A9
:1031D000484603F0E5FF0A9A0C98029C121A100464
:1031E000039807440B97079F00F0978090B20A92CC
:1031F00084424FF0140109904FF4207254EA308059
:103200000C900E2003F0DEFC002800F08380814645
:10321000408913280CD847F6FE4048F69213C0F2B6
:10322000120040F2253246A1C0F212030EF028FD32
:10323000D9F8040039461422FCF7FEFED9F8040040
:10324000002C089096D00C9FBAF80A40AEB2B44257
:103250000CD247F6FE4048F69213C0F2120040F23C
:103260002D323FA1C0F212030EF00AFD601BB9B26D
:1032700080B2814251EA3088B44205D1DAF800A028
:103280000D20002530E000BF052002F005FB38B31B
:103290008346DAF8040041464122064400205B469A
:1032A000CDE9006803F064FDB0B10646504604F075
:1032B0002FF944F289003146C0F21000CBE9040A2C
:1032C000484603F075FDA7EB080738041CBFDAF881
:1032D00000A00025002007E00520594602F028FA4A
:1032E000484603F05DFF08200D2818BF002811D1C3
:1032F0003804A9D13EE747F6FE4048F69213C0F2E3
:1033000012004FF43F7207A1C0F212030EF0B8FC96
:10331000FA2602E0FF2600E0002670B20DB0BDE8FC
:10332000F08F00BF6970345F6672616728293A20A8
:103330007062756620746F6F2073686F727400001E
:1033400074686973206E65656473206120706275AE
:103350006620696E206F6E65207069656365210067
:10336000702D3E6C656E203E3D20706F66660000DD
:103370002DE9F04747680446387800F0F002402A0B
:1033800012D1894681007888CDB200F03BFF2189B7
:103390000646884203D22046314604F02FF8608961
:1033A000A84228BF142D05D2204603F0F9FE0020C4
:1033B000BDE8F08720898642F6D838462946FFF7CF
:1033C0006BFD0028F0D1386940F2183AFB68494695
:1033D00000F0F00699F82920C2F2100AE02ECAE99E
:1033E000043004D1D00735D14FF0000838E0D207BF
:1033F0000AD04A6842B19042884631D04946FFF728
:1034000071FE4946C84658BB9AF814004FF00008B0
:103410007F2825D049F63C20C2F2100006681EB96C
:103420001EE03668002EDFD08E421CBF96F82900C1
:103430005FEAC070F5D07268002AF2D0DAF81400A2
:10344000904205D03146FFF74DFE49460028E8D0AE
:10345000B04605E048688846002808BF4FF00008DD
:10346000DAF81000FFF73EFE00289DD1DAF81000D0
:1034700000F0F000E02818BFB8F1000F3FF494AF5F
:10348000F8886FF0C001084206D0204600F010F91D
:10349000002847D04768044638783C21CAF80080A5
:1034A00001EA80002946CAF80490AAF80C002046D8
:1034B000CAF8087004F04EF8787A01280DD0062872
:1034C00006D011280ED1204649460CF089F820E09C
:1034D0002046494607F054FD1BE020464946FFF7C9
:1034E0007DFB16E0DAF814004146FFF7FBFD68B9F2
:1034F000DAF8140000F0F000E02807D02046294652
:1035000003F004FF20460221FFF764FB204603F08E
:1035100047FE0020CAE90400CAE90000CAF8080012
:10352000AAF80C000020BDE8F0870000B0B5DDE986
:1035300004CE069C32B121B10D68002D08BF211DBB
:1035400000E0211D0694CDE904CEBDE8B04000F0B6
:1035500001B800002DE9F04F81B00446807B984609
:103560001546012889460FD047F6FE4048F6381127
:1035700048F64413C0F21200C0F212014FF4557223
:10358000C0F212030EF07CFB002D5CD0204614210B
:1035900003F0E2FA002859D1DDE90AB660896768CC
:1035A00013280CD847F6FE4048F64413C0F2120028
:1035B00040F2893232A1C0F212030EF061FB4520C5
:1035C000D5F800A03870208987F808807E72C7F887
:1035D00010A087F801B000F015FE40F2303B06461F
:1035E000C2F2100B00217880BBF80000F98000F0D7
:1035F00009FE0A990B9A48EA0121B9F1000F01EB83
:10360000022147F6D822BBF8003011FA8AF1C0F245
:10361000120201EB1A4152EA098212683144014454
:1036200011FA82F1B88001EB1241FA6001F1450014
:10363000591C030C13FA80F0ABF8001000EB10409B
:10364000C043788108E06089142801D2FE2013E08D
:1036500060686D46006900900C99088C38B1228929
:10366000824204D920462A46FFF754FD04E04B6904
:10367000084621462A46984740B201B0BDE8F08F7F
:10368000636865636B207468617420666972737423
:1036900020706275662063616E20686F6C642073B1
:1036A00074727563742069705F6864720000000052
:1036B0002DE9F04F85B0D0F804A007469AF8000035
:1036C00000F00F00052810D1BAF8060000F09AFDAE
:1036D000BAF802108046084600F094FD9AF80010EF
:1036E0003C2202EA8105A84207D2384603F058FD81
:1036F0000024204605B0BDE8F08F0446384603F0AC
:10370000DDFB40F2323B8146C2F2100B41F2600C0D
:10371000BBF80010C2F2110C08440B2857D301A8C3
:103720004FF0000B80E83001049700BFDCF8007018
:1037300057B3DAF80C304FF00008002100240020C5
:1037400010E000BF08F10108D0B1FE7FC57FAE4296
:1037500050EA878051EA84813A68002A54EA078453
:10376000174615D07D699D42ECD1BD69DAF810602D
:10377000B542E7D1BE89BAF80450AE42E2D1EBE7D8
:1037800038462146E8E700BF002000214FF000083E
:1037900030B100F085FB41F2600C8344C2F2110CA1
:1037A000CB4502DAB8F1010FC0DC0DF10408BBF122
:1037B000000F40F2323B049F98E83001C2F2100B38
:1037C00093D0BBF8000048440A283FF68EAFDCF8DF
:1037D000006046B3DAF80C0002E000BF366816B3AA
:1037E00071698142FAD1B169DAF810209142F5D1BC
:1037F000B189BAF804209142F0D1BAF8060000F07D
:1038000001FDC0040AD1F08900F0FCFCC00405D021
:1038100006F1080051461422FCF70EFC41F2600E3E
:10382000C2F2110E7CE0042002F036F841F2600E84
:103830000646C2F2110E002855D101A8049780E86F
:1038400030014FF0000800BFDEF8003043B3DAF873
:103850000CC000240021002500200FE004F1010429
:10386000D0B1DF7FC67FB74250EA838051EA8581BD
:103870001A68002A55EA0385134614D05F69674524
:10388000ECD19F69DAF81060B742E7D19F89BAF8A6
:103890000460B742E2D1EBE718462946E8E700BFEB
:1038A00000200021002430B100F0FAFA41F2600E4D
:1038B0008044C2F2110EC84501DA012CC4DCC845AF
:1038C00001DA002607E0042001F0E6FF41F2600E75
:1038D0000646C2F2110E0DF10408049F98E830016B
:1038E000002E00F0F88000213046C6E90011DEF815
:1038F0000020C6E90311C6E90511F16140F8081F6F
:103900000F21F177514632601422CEF80060FCF7A7
:1039100093FB41F2600EC2F2110E002E3FF4E5AEB1
:10392000BAF806004FEAC8088006A4EB0502029028
:1039300009D490B210FA88F188B288422FD14FF69C
:10394000EB7188422BD87C680392608800F05AFCA7
:1039500021783C220025CDF8108002EA81029042B5
:1039600014D3E188841A084600F04CFCC10088B2E8
:10397000D7F804A010FA84F2CAF800501FFA82FEA9
:10398000AAF804109645AAF806207BD0012241F23D
:10399000600EC2F2110E002ADDE9032128D0706802
:1039A00000287FF4A2AEDEF80000864213D047F66E
:1039B000FE4048F6E51148F69213C0F21200C0F23C
:1039C000120140F2AB22C0F212030EF059F941F29B
:1039D000600EC2F2110EDEF80000B04240F06C81C1
:1039E00030683146CEF80000042001F0A1FE7CE6EC
:1039F000BBF80000029B4844002BABF8000005D444
:103A00005018B17FB08341F00100B077002D4FF026
:103A100000043FF46EAE706806F108011422476896
:103A2000B08B3D6800F114083846FCF705FB1FFA1F
:103A300088F000F0E7FB788038461421FC807C8118
:103A4000FFF72AFA746878816DB100BF6F68284665
:103A5000142103F07FFD2046294603F0A9F93D68B3
:103A60000DB12FF00DC841F26000C2F211000068E4
:103A7000864235D0014600BF91B30D460968B14278
:103A8000FAD12EE07568002D5FEA1F91EDB36C68E6
:103A90004FF0010CA388984265D24FF00008B8F1AE
:103AA000000FCAF8005079D09E454FF000054FF046
:103AB00001023FF66CAFB8F8063041F2600EC2F278
:103AC000110E9842FFF467AF6446834218BF00248A
:103AD000C8F800706CE00026002E7FF421AF04E6E9
:103AE0000025864217D0D5B947F6FE4048F620217A
:103AF00048F69213C0F21200C0F2120140F24512D1
:103B0000C0F212030EF0BCF809E041F2600E01248D
:103B10004FF000084AE041F26005C2F2110530683A
:103B200031462860042001F003FE204603F0C6F968
:103B3000BBF80010054681420FD247F6FE4048F61A
:103B4000052148F69213C0F21200C0F2120140F2B1
:103B50009B22C0F212030EF093F8BBF80000401B4A
:103B6000ABF80000C5E5002299B2884218D0E3887E
:103B7000A046984214D32AB1D2888A424FF000015D
:103B80005CEA018CD8F80050002D5FEA1F910AD042
:103B90006C684246A3889842E6D280E79E4501D9E8
:103BA0000025F3E6776041F2600E6446C2F2110E22
:103BB000A9B3B8F1000F1ED0B8F80610814210D991
:103BC00047F6FE4048F69213C0F212004FF4DB7243
:103BD00041A1C0F212030EF053F841F2600EC2F29E
:103BE000110EB8F80600BAF80410884218BF002475
:103BF000C8F8007013E0706880B147F6FE4048F6E0
:103C00009213C0F2120040F2BF123BA1C0F21203A5
:103C10000EF036F841F2600EC2F2110E7760029893
:103C2000002801D44CB91BE0B07F0022C00718D097
:103C3000002C4FF000053FF4AEAE706880B14068D4
:103C4000818869B906E04C68BAF80620A388A246C4
:103C50009A4204D1DAF800100029F4D1544611B187
:103C60000022002597E6A04210D147F6FE4048F614
:103C70009213C0F2120040F2E1122DA1C0F2120321
:103C80000DF0FEFF41F2600EC2F2110E206880B10D
:103C900047F6FE4048F69213C0F2120040F2E312DB
:103CA00027A1C0F212030DF0EBFF41F2600EC2F249
:103CB000110E012500226EE647F6FE4048F620214F
:103CC00048F69213C0F21200C0F2120140F24512FF
:103CD000C0F212030DF0D4FF636865636B20667257
:103CE00061676D656E747320646F6E2774206F76E4
:103CF00065726C61700000006E6F2070726576698D
:103D00006F757320667261676D656E742C207468C0
:103D10006973206D75737420626520746865206610
:103D20006972737420667261676D656E742100003C
:103D300073616E69747920636865636B00000000CD
:103D400076616C69646174655F64617461677261F6
:103D50006D3A6E6578745F70627566213D4E554CA4
:103D60004C00000080B549F63C21C2F2100100BFB2
:103D70000968C9B191F8292002F00503052BF7D194
:103D80004B680BB92FF00DC0D0F800C0D1F808E097
:103D900083EA0C0313EA0E0F04D09207E8D4CA6832
:103DA0009445E5D1084680BD49F63821C2F210019C
:103DB000096869B191F8292002F00502052A07D1A6
:103DC0004A682AB100787F3851EA1081084680BDE0
:103DD000002080BD2DE9F04F82B0006840F2083B22
:103DE000C2F2100B0DF10409019000204FF0CD0C30
:103DF0000DF101034FF02E084FF0000A19F80A40A8
:103E0000002700BFE5B2214605FB0CF6FAB2092DEA
:103E10004FEAD62404EB8406A1EB46013E4607F1A7
:103E2000010741F030019954ECD8390609F80A40ED
:103E300016D001215F4651FA86FE01461028D8BFF0
:103E4000102100BF814220D0F2B201309A5C013EC5
:103E500007F8012B0FF00BC00F2804DD15E000BFA1
:103E60005F460F2811DCBB4601300BF8018BBAF11D
:103E7000030F0AF1010AC1D10020387040F2083066
:103E8000C2F2100002B0BDE8F08F002002B0BDE821
:103E9000F08F0000DDF800C0CDF800C0FFF79CB83F
:103EA0002DE9F04F81B08846814681420BD147F61B
:103EB000FE4048F69213C0F21200AB224AA1C0F2B3
:103EC00012030DF0DDFEB8F1000F0FD0D8F800009E
:103ED00048450BD047F6FE4048F69213C0F2120058
:103EE000AD2244A1C0F212030DF0CAFED9F804407D
:103EF0006068818809B1002612E001681422C9F8BF
:103F0000041009F10801FCF797F820460121FEF79B
:103F1000BFFF204602F0D2FF0646204603F040F9DC
:103F2000D9F8044004B347F6FE4A48F69217C0F2A7
:103F3000120A0FF2D40BC0F2120704E0204603F07D
:103F40002FF92C4685B160680568204602F0B6FF5F
:103F500010FA86F6B6F5803FF0D350465946CC228B
:103F60003B460DF08DFEE9E741F26000C2F2110020
:103F70000168494550EA088013D0B8F1000F10D10C
:103F800047F6FE4048F6202148F69213C0F2120090
:103F9000C0F2120140F24512C0F212030DF070FEA1
:103FA0004046D9F8001001600420494601F0C0FBEA
:103FB00040F23235B4B2C2F210052888A0420BD2CA
:103FC00047F6FE4048F69213C0F21200D22216A124
:103FD000C0F212030DF054FE2888811B2046298070
:103FE00001B0BDE8F08F00BF7072657620213D20E2
:103FF00069707200707265762D3E6E657874203D32
:104000003D2069707200000070627566735F6672B1
:10401000656564202B20636C656E203C3D20307804
:10402000666666660000000069705F7265617373A2
:104030005F70627566636F756E74203E3D207062BE
:104040007566735F667265656400000041F260002A
:10405000C2F211000068002808BF7047B0B5002404
:1040600006E000BF05682146FFF71AFF28463DB16C
:10407000C17F0029F6D001390568C1770446F5E70C
:10408000BDE8B0407047000010B5044660B947F67F
:10409000FE4048F69213C0F2120040F2CE220FA169
:1040A000C0F212030DF0ECFD6069002818BF03F0A8
:1040B00077F864B947F6FE4048F69213C0F2120052
:1040C0004FF4317208A1C0F212030DF0D9FD0520A2
:1040D0002146BDE8104001F02BBB00BF7063722089
:1040E000213D204E554C4C007020213D204E554C1A
:1040F0004C00000070B50D46FCF7CEFC04467DB1C7
:10410000002600BF14FA86F069686A89FBF794FFFD
:1041100068892D6806440DB12FF00DC0B1B200E0E2
:1041200000212046FCF730FE002070BD70B504462B
:104130004068804705F024FF40F2F8112668C2F27B
:10414000100109687518291AB1F1FF3F21DD0A2015
:1041500001F0A2FB002842D044F22D120021C0F24F
:104160001002826049F644220160C2F21002116816
:104170004560C46059B14B68EB1A07D40A46096818
:1041800021B14B68EB1AB3F1FF3FF7DC016010601F
:1041900070BD05460A2001F07FFB00B344F22D13E9
:1041A0000022C0F21003836049F644230260C2F289
:1041B00010031A687119002A4160C46004BF1860B6
:1041C00070BD56688E1B07D41346126822B156681C
:1041D0008E1BB6F1FF3FF7DC0260186070BD47F63A
:1041E000FE4048F2367148F2E863C0F21200C0F2B5
:1041F0001201BE22C0F21203BDE870400DF040BDB6
:1042000000BA704740BA704780B505F06FFE01F004
:104210002FF801F007FB02F025FC0BF0D5F906F0B2
:10422000A3FEBDE8804005F04FBF000010B5016857
:104230000446486860B1097801F0F00110290AD0FD
:10424000202905D1A168A2890BF02CF9207110BD9D
:10425000FA20207110BDA168A28906F067F92071CB
:1042600010BD0000B0B501684A6872B10A7802F06A
:10427000F002102A09D1027A4B78032A01D0022BCE
:1042800003D0012B04D0032B04D1F5210171B0BD63
:10429000FB21FBE7D207054603D0084601F034FEB8
:1042A00028460168096A81B147F6FE4048F6034195
:1042B00048F6B733C0F21200C0F2120140F2BD72EC
:1042C000C0F212030DF0DCFC2846016804224A709B
:1042D00008620846002100F03DF80028D7D0286881
:1042E000407804280FD047F6FE4048F6283148F6BB
:1042F000B733C0F21200C0F2120140F2C272C0F233
:1043000012030DF0BDFC40F23834C2F21004204616
:1043100005F030FE286800210C3005F099FD20469C
:1043200005F012FE28684078002808BFB0BD47F6A7
:10433000FE4048F6283148F6B733C0F21200C0F20A
:10434000120140F2C672C0F21203BDE8B0400DF097
:1043500097BC00002DE9F04381B00446884660B95F
:1043600047F6FE4048F6B733C0F2120040F2A232E0
:104370008FA1C0F212030DF083FC207800F0F00052
:1043800010280CD047F6FE4048F6B733C0F21200B2
:1043900040F2A3328AA1C0F212030DF071FC6078E2
:1043A00004280CD047F6FE4048F6B733C0F212009E
:1043B0004FF469728AA1C0F212030DF061FC6068CB
:1043C00060B947F6FE4048F6B733C0F2120040F23B
:1043D000A5328CA1C0F212030DF052FC206A78B90C
:1043E00047F6FE4048F6903148F6B733C0F2120067
:1043F000C0F2120140F2A632C0F212030DF040FCEE
:10440000206A6768007A00F00105032800F00209BD
:1044100012D045B9B9F1000F02D0788BC0060BD489
:1044200001265EB10EE0387D0828F3D8012101FA9B
:1044300000F010F4B07FEDD000261EB93846002100
:1044400006F070F8387D012805D13846002105F0C6
:1044500075FF06BB28E025B9B9F1000F0CD186B174
:1044600019E03846002109F075F83846002105F0BA
:1044700065FFB9F1000FF2D03846002109F01AFCAF
:104480004EB938460021002208F06EF83846002167
:1044900006F02CFC46B1384629464A4609F03EFC57
:1044A000411C06D0002111E0384606F00BF9411CF2
:1044B000F8D1216A497A00295FEA0F9156EA010290
:1044C00004D1384605F036FF00210020002942D0F3
:1044D0000546387D01280CD147F6FE4048F6B73333
:1044E000C0F2120040F241424BA1C0F212030DF0A3
:1044F000C7FBB9F1000F06D048F6D9613846C0F2C3
:10450000100109F0D7FB47F2E1513846C0F2100123
:10451000012208F029F841F6D9213846C0F21001ED
:1045200006F0E4FB3846214605F0FCFF7DB947F66E
:10453000FE4048F6823148F6B733C0F21200C0F2AE
:10454000120140F24D42C0F212030DF099FB2846D1
:1045500001B0BDE8F083216A0F6808714FF00001D7
:1045600021626170C0B93EB9636A002060601BB10E
:1045700020460421002298472DB1636A1BB12046D2
:10458000002100229847B9F1000F05D0636A1BB1E2
:104590002046022100229847B8F1000F1CBF07F106
:1045A0000C0005F00FFD002001B0BDE8F08300BF56
:1045B000696E76616C696420636F6E6E0000000046
:1045C0007468697320697320666F72207463702049
:1045D0006E6574636F6E6E73206F6E6C7900000091
:1045E000636F6E6E206D75737420626520696E2036
:1045F0007374617465204E4554434F4E4E5F434C77
:104600004F53450070636220616C7265616479206C
:10461000636C6F7365640000436C6F73696E672031
:1046200061206C697374656E20706362206D6179BE
:10463000206E6F74206661696C210000B0B504467D
:1046400000684578ADB1007800F0F00010280CD07B
:1046500047F6FE4048F6B733C0F2120040F25F4220
:1046600047A1C0F212030DF00BFB002D18BF022D65
:1046700025D120680021217101F046FC20684168A5
:1046800071B1027802F0F002102A21D0202A04D160
:104690000022CA6140680BF04DF92068002141609A
:1046A0002068436A13B10021002298472068436ABA
:1046B000002B63D002210022BDE8B0401847032D33
:1046C00003D12068007F4007D3D4FB20207155E040
:1046D000006A78B147F6FE4048F6034148F6B73322
:1046E000C0F21200C0F2120140F29442C0F2120372
:1046F0000DF0C6FA206804214170032121720021C7
:104700000462FFF727FEC8B32068407804280FD062
:1047100047F6FE4048F6283148F6B733C0F212009B
:10472000C0F2120140F29A42C0F212030DF0A8FA50
:1047300040F23835C2F21005284605F01BFC20680F
:1047400000210C3005F084FB284605F0FDFB2068B5
:104750004078002808BFB0BD47F6FE4048F6283133
:1047600048F6B733C0F21200C0F2120140F29E4286
:10477000C0F21203BDE8B0400DF082BAB0BD00BF78
:104780006E6574636F6E6E207374617465206572FC
:10479000726F7200B0B582B00268516861B113786F
:1047A00003F0F003102B09D15278022A08D01AB96D
:1047B0000A7D6AB1FA2104E0F52102E0F02100E06F
:1047C00000218DF807109DF80710017102B0B0BDEF
:1047D000054608460DF10702FF2107F07FF8044661
:1047E0002846002CEFD0016851F8102F32B108464E
:1047F00005F07EFB2968284600220A610168002333
:104800008DF8073051F8142F3AB90846102105F0F9
:104810007DFB014628468DF807109DF8071039B139
:10482000204605F04FFF2968002228464A60CAE763
:1048300002680223546001685370486805F072FEF4
:10484000286841F69D01C0F21001406805F076FD30
:104850002846B8E7B0B504460020216820714868B2
:1048600000B1B0BD2068007800F0F000102816D02C
:10487000202844D100200BF02BF8216848602268E2
:104880005068A0B31178222904BF01210174506837
:1048900048F6A551C0F210010BF02EF827E00020D9
:1048A00007F026F92168486021684D68FDB1284667
:1048B00005F038FE48F645412846C0F2100108F0E0
:1048C00049FE48F6D9612846C0F2100109F0F2F914
:1048D00047F2E1512846C0F21001022207F044FEDF
:1048E00041F6D9212846C0F2100106F0FFF92068F0
:1048F0004068002818BFB0BDFF202071B0BDFA206D
:104900002071B0BDF0B581B004460021006821716E
:10491000416889B1007800F0F00010280CD1A66839
:104920004FF6FF772068BE42406856EA3785294631
:1049300008F080FE761BF5D101B0F0BDB0B504469D
:10494000006801F057FB50B92068017801F0F001D0
:10495000102903D1417821B1FB2000E0FA20207119
:10496000B0BD4168002963D0016A0122427079B16B
:1049700047F6FE4048F6034148F6B733C0F212004E
:10498000C0F2120140F22372C0F212030DF078F966
:10499000606960B947F6FE4048F6B733C0F21200CE
:1049A00040F2247223A1C0F212030DF069F92068CD
:1049B0000021046200F048F80028D1D02068407837
:1049C00001280FD047F6FE4048F6283148F6B733A5
:1049D000C0F21200C0F212014FF4E562C0F21203FD
:1049E0000DF04EF940F23835C2F21005284605F0B8
:1049F000C1FA206800210C3005F02AFA284605F09B
:104A0000A3FA20684078012818BFB0BD47F6FE40E1
:104A100048F6283148F6B733C0F21200C0F212014E
:104A200040F22C72C0F21203BDE8B0400DF028B97C
:104A3000F52094E76D73672D3E6D73672E772E6CAE
:104A4000656E20213D2030002DE9F04F83B00446F3
:104A5000009178B947F6FE4048F6AA3148F6B733D8
:104A6000C0F21200C0F2120140F27362C0F21203EF
:104A70000DF006F9607801280CD047F6FE4048F6A4
:104A8000B733C0F2120040F27462AAA1C0F212035E
:104A90000DF0F6F8206A78B947F6FE4048F69031F6
:104AA00048F6B733C0F21200C0F2120140F275624C
:104AB000C0F212030DF0E4F8606860B947F6FE40FA
:104AC00048F6B733C0F2120040F27662A1A1C0F2FC
:104AD00012030DF0D5F8206AD0E9050181420CD30C
:104AE00047F6FE4048F6B733C0F212004FF4CF62EB
:104AF0009EA1C0F212030DF0C3F8206A808978B934
:104B000047F6FE4048F65A3148F6B733C0F2120075
:104B1000C0F2120140F27962C0F212030DF0B0F857
:104B2000206A4FF6FF78217F007F01F0020100F03C
:104B30000402C7B289185FEA0F910291019404E060
:104B400000285FEA1F910D4271D0216A002263683C
:104B50008868D1F810B0D0E900A047F00209B3F896
:104B60006430029CA0EB0B05B2EB154F59EA17829B
:104B70004FF6FF77BD4255EA3786B3425FEA2F977B
:104B800004EA070459EA328753EA3686012C03D136
:104B9000002B51D017461E461BFA86F1019C81421C
:104BA0000FD947F6FE4048F62F3148F6B733C0F22A
:104BB0001200C0F2120140F2A462C0F212030DF022
:104BC0005FF8B5F5803FB6B204D3464502D1012562
:104BD0004F4607E0A8B2864203D1206A80890228A6
:104BE000F5D200256068FBB20AEB0B01324609F0F2
:104BF00029FE0028A4D1216A8A6932448A61216A87
:104C00000A6932440A61216A8A680B6952689342D0
:104C100096D18A89013A8A81216A8A89002A8FD0AD
:104C20008A6808328A600022216A0A6188E7411C8A
:104C3000C9B2012907D92CE089690020002908BFE1
:104C40006FF00600019C029989B1216AD1E9051231
:104C50008A420CD2636A2BB105462046032100220A
:104C600098472846217F41F01001217711E06168C3
:104C7000B1F86420B2F5FA6F03D3B1F866100529D4
:104C800007D3636A2BB105462046032100229847CB
:104C90002846C1B2FF2929D0002946D1216A0546FC
:104CA000D1E905236168084693425FEA1F9406F044
:104CB0008DFF021D029B5FEA1F9242EA040242EA54
:104CC000030255EA108082F00102D10728D1019B2E
:104CD0001A6A116810710020009A1862587002B3A5
:104CE00001F10C0005F06EF900201AE0616805463C
:104CF000084606F06BFF021D029B5FEA0F9203EA73
:104D0000020355EA1080012B08D1206A0022806935
:104D100000284FF0000008BF6FF00600D107D6D082
:104D2000FF2040B203B0BDE8F08F0022D107F7D1D9
:104D3000CDE700BF636F6E6E2D3E737461746520A6
:104D40003D3D204E4554434F4E4E5F5752495445CA
:104D500000000000636F6E6E2D3E7063622E746300
:104D60007020213D204E554C4C000000636F6E6E4C
:104D70002D3E63757272656E745F6D73672D3E6D47
:104D800073672E772E6F6666736574203C20636FA1
:104D90006E6E2D3E63757272656E745F6D73672DF6
:104DA0003E6D73672E772E6C656E0000B0B50C46B5
:104DB000054659B947F6FE4048F6B733C0F212002F
:104DC000852210A1C0F212030CF05AFF47F6D03032
:104DD000C0F2120085420FD047F6D230C0F2120066
:104DE00085420BD047F6D130C0F2120085421CBF7D
:104DF0000020B0BDF12002E0F32000E0F22020709E
:104E00000120B0BD65727220213D204E554C4C00F2
:104E100082B040F20C0040F24835C2F210004FF66A
:104E2000B85600685921C4F200051622CFF6FF7665
:104E3000882300BF0138A951AA51AB5103D0AF5903
:104E40000FB92FF009C80820FBF734FB0820FBF747
:104E50000BFE4EF600720420C0F61C5200214FF0EB
:104E60000008FBF771FBFCF7C1FBFCF77DFB4FF47F
:104E700080504FF40821FBF70BFB00204FF4C021BA
:104E8000FBF706FB4FF00C50FCF75CFBFCF78CFBD0
:104E90002868032749F200144FF4E05167F3040037
:104EA000286002222868C5F2220467F30C202860DB
:104EB000286867F314402860286867F31C6028603E
:104EC000686867F30400686055F8200C67F3040015
:104ED00045F8200C55F8240C67F31C6045F8240CA9
:104EE00055F8240C67F3144045F8240C55F8440C8D
:104EF00067F31C6045F8440C55F8440C67F3144004
:104F000045F8440C7846C00020465CBF49F20010CA
:104F1000C4F22200FBF778FF78464FF40051C0003E
:104F20005CBF49F20014C4F222042046012201248D
:104F3000FBF74CFF49F63410C4F222000460FBF783
:104F40008FFF40F6C1000FA1C0F211004FF40062C4
:104F5000002345F80680CDE900780CF0A1FA012085
:104F60000BF0C0F801200BF02FF900200BF04AF8ED
:104F70000BF0F6F804A00DF0D5F80BF059FB00BFCC
:104F8000FEE700BF576562000A0A46726565525423
:104F90004F53206973207374617274696E67202E99
:104FA0002E2E00002DE9F04381B0002804BF01B08F
:104FB000BDE8F083810709D047F6FE4047F67F53EE
:104FC000C0F2120040F2732285A1D9E049F61436EE
:104FD000A0F10804C2F2100631688C42C0F0C7800C
:104FE00049F6183900F10C02C2F21009D9F8001084
:104FF0008A4200F2BC8040F23C310746C2F2100106
:10500000084604F0A1FF17F8041C002900F0D08026
:1050100037F8082C47F2305138468A4200F2BB80FC
:1050200030F8065C8D4200F2B6803168631A9BB29C
:105030009D4203D04D5B9D4240F0AD80D9F80050B9
:105040000A44AA4203D052889A4240F0A48040F217
:1050500034380023C2F21008D8F8002000F8043CCD
:10506000944238BFC8F800408C420DD247F6FE404B
:1050700047F67F53C0F2120040F2DF1261A1C0F286
:1050800012030CF0FDFD3846D9F800108C420DD308
:1050900047F6FE4047F67F53C0F212004FF4F0721D
:1050A0005EA1C0F212030CF0EBFD384610F8041CB0
:1050B00069B147F6FE4047F67F53C0F2120040F256
:1050C000E1125DA1C0F212030CF0DAFD384621882E
:1050D00047F23152914210D347F6FE4047F6555100
:1050E00047F67F53C0F21200C0F212014FF4F27281
:1050F000C0F212030CF0C4FD3846228831680A441D
:10510000944215D013799BB9D9F800309A420FD048
:10511000D8F80030934208BFC8F8004013882380B5
:1051200047F2305312889A421EBF631A0A445380D2
:1051300030F8060C0A18A24210D0137973B9D8F8C7
:105140000030A34208BFC8F800202388138047F22C
:10515000305322889A421CBF1144488040F23C30B0
:10516000C2F2100001B0BDE8F04304F003BF47F6FF
:10517000FE4047F67F53C0F2120040F27F2235A175
:10518000C0F212030CF07CFD04F05CFE01B0BDE83F
:10519000F04304F081BE47F6FE4047F6C85147F69B
:1051A0007F53C0F21200C0F2120140F295220BE0D0
:1051B00047F6FE4047F6FA5147F67F53C0F2120019
:1051C000C0F212014FF42372C0F212030CF058FD2A
:1051D00040F23C30C2F2100004F0CCFED4E700BF35
:1051E0006D656D5F667265653A2073616E6974798D
:1051F00020636865636B20616C69676E6D656E74B2
:1052000000000000706C75675F686F6C65733A2012
:105210006D656D203E3D2072616D0000706C75679C
:105220005F686F6C65733A206D656D203C2072611C
:105230006D5F656E64000000706C75675F686F6C11
:1052400065733A206D656D2D3E75736564203D3D37
:10525000203000006D656D5F667265653A20696C8F
:105260006C6567616C206D656D6F72790000000080
:1052700080B549F61C3049F61431C2F21000002204
:105280000330C2F2100120F0030049F61833086021
:1052900047F2305102714218C2F2100301601A60E5
:1052A00047F234520123835447F23052C7F230524E
:1052B000425040F23431C2F21001086040F23C30FA
:1052C000C2F2100004F04AFE002808BF80BD47F675
:1052D000FE4047F67F53C0F2120040F21F2203A1A6
:1052E000C0F21203BDE880400CF0CABC6661696C74
:1052F000656420746F20637265617465206D656DEF
:105300005F6D757465780000002804BF0020704749
:105310002DE9F04F81B00146033082B220F003073F
:105320000C2A38BF0C27BCB247F2305084424FF0F1
:10533000000021D88C421FD340F23C30C2F2100052
:1053400004F002FE40F2343949F6143AC2F2100970
:10535000C2F2100AD9F80010DAF800000D1A47F26C
:105360003051091BAAB291420ED840F23C30C2F231
:10537000100004F0FFFD002001B0BDE8F08F00BF79
:10538000328891421546F0D986183379002BF7D12F
:10539000338808329B1AA342F2D304F114008342EB
:1053A00002D2012030712AE007EB020B47F230589D
:1053B0001FFA8BF747450FD147F6FE4047F62061AD
:1053C00047F67F53C0F21200C0F2120140F287325A
:1053D000C0F212030CF054FCDAF80000002133880C
:1053E00010FA8BF2C353A6F800B01171C15B55805F
:1053F0000122414532711CBF0844A0F802B0D9F81F
:10540000000049F61838C2F21008864222D102790B
:10541000D8F80010002A18BF884208D0DAF8003007
:10542000008818440279002A18BF8842F8D1002A5F
:10543000C9F8000018BF88420CD047F6FE4047F676
:105440007F53C0F2120040F2B5321FA1C0F2120326
:105450000CF016FC40F23C30C2F2100004F08AFD61
:10546000A019D8F80010083088420CD947F6FE4041
:1054700047F67F53C0F2120040F2BA3219A1C0F2CF
:1054800012030CF0FDFBB00718D047F6FE4447F6B8
:105490007F55C0F2120447F62651C0F2120520468D
:1054A000C0F212014FF46F722B460CF0E9FB19A108
:1054B000204640F2BE322B460CF0E2FB06F108001B
:1054C00001B0BDE8F08F00BF6D656D5F6D616C6C04
:1054D0006F633A20216C667265652D3E7573656455
:1054E000000000006D656D5F6D616C6C6F633A204C
:1054F000616C6C6F6361746564206D656D6F72794A
:10550000206E6F742061626F76652072616D5F65D9
:105510006E642E006D656D5F6D616C6C6F633A201B
:1055200073616E69747920636865636B20616C696F
:10553000676E6D656E7400002DE9F0470446C81C67
:1055400082B220F003060C2A38BF0C26B5B247F20F
:10555000305085424FF0000046D88D4238BFBDE83C
:10556000F08749F6143949F61837C2F21009D9F80C
:105570000000C2F21007844202D3386884420CD380
:1055800047F6FE4047F67F53C0F2120040F2D222A7
:1055900059A1C0F212030CF073FBD9F80000844249
:1055A0001DD339688C421AD2A2463AF8081DAAEBDC
:1055B0000008A1EB0800083887B2BD4216D947F6AB
:1055C000FE4047F67F53C0F212004FF4397250A1EB
:1055D000C0F212030CF054FB0020BDE8F08704F089
:1055E00031FC04F059FC2046BDE8F087FBD040F2C6
:1055F0003C30C2F2100004F0A7FCBAF80000D9F861
:1056000000100D182979B9B306F1140189B2B94215
:105610006AD806EB080147F23052904201F10806C1
:105620000FD147F6FE4047F6206147F67F53C0F2A0
:105630001200C0F2120140F21632C0F212030CF056
:105640001FFBD9F8000040F23431C2F2100110FA09
:1056500086F20B689A4238BF0A60BAF8001000233D
:10566000137147F230531180AAF800601188A2F834
:105670000280994236D137E047F2305188420FD14B
:1056800047F6FE4047F6206147F67F53C0F212000E
:10569000C0F2120140F2F522C0F212030CF0F0FA4F
:1056A00040F234302988C2F21000026806EB080389
:1056B000AA4203F1080604D1D9F8002012FA86F2B2
:1056C0000260D9F80000B2B200278152AAF8006047
:1056D000815A47F2305210FA86F391421F71A3F8B3
:1056E000028001D00844468040F23C30C2F21000F3
:1056F00004F040FC77E700BF6D656D5F7472696D03
:105700003A206C6567616C206D656D6F7279000081
:105710006D656D5F7472696D2063616E206F6E6C74
:105720007920736872696E6B206D656D6F72790098
:105730000D2826D2002908BF7047B0B547F69C3225
:105740000C46C0F2120252F8205088070FD047F6DC
:10575000FE4047F68D6147F63163C0F21200C0F299
:10576000120140F26D12C0F212030CF089FA04F03B
:1057700069FBA9680A6822600C60BDE8B04004F0CB
:105780008BBB47F6FE4047F63163C0F212004FF480
:10579000D57202A1C0F212030CF072BA6D656D7081
:1057A0005F667265653A2074797065203C204D45CE
:1057B0004D505F4D41580000B0B505460C4678B9D4
:1057C00047F6FE4047F67B6147F63163C0F21200B0
:1057D000C0F2120140F29512C0F212030CF050FA1E
:1057E000002D18BF002C00D1B0BDA0070FD047F688
:1057F000FE4047F68D6147F63163C0F21200C0F2F9
:10580000120140F26D12C0F212030CF039FA04F0EA
:1058100019FBA9680A6822600C60BDE8B04004F07A
:105820003BBB000070B547F69C314FF0000CC0F256
:1058300012010022FFE751F8223098685C88C0F816
:1058400000C044F001C804E001320D2A08BF70BD59
:10585000F1E75868C41C188824F003049D682E687A
:1058600026602C6004440FF007C8EDE780B581681E
:10587000002342880B6042F00FC04168B0F800C0BE
:10588000CA1C22F0030200BF8368196811601A6005
:1058900062440FF007C880BDB0B50D2825D247F689
:1058A0009C31C0F2120151F8204004F0CBFAA168FB
:1058B0000C684CB32268A3070A6012D047F6FE4278
:1058C00047F6AD61C0F2120247F63163C0F2120131
:1058D00005461046C0F2120340F219120CF0D0F93E
:1058E000284604F0D9FA2046B0BD47F6FE4047F6F8
:1058F0003163C0F2120040F2571205A1C0F2120348
:105900000CF0BEF90020B0BD04F0C6FA0020B0BD16
:105910006D656D705F6D616C6C6F633A207479704A
:1059200065203C204D454D505F4D41580000000022
:10593000B0B500B3044604F085FAA1680C6864B3FE
:105940002268A3070A6012D047F6FE4247F6AD610F
:10595000C0F2120247F63163C0F21201054610464A
:10596000C0F2120340F219120CF08AF9284604F032
:1059700093FA2046B0BD47F6FE4047F67B6147F6F6
:105980003163C0F21200C0F212014FF49E72C0F2F5
:1059900012030CF075F90020B0BD04F07DFA002070
:1059A000B0BD0000B0B582B004460068A1680DF13A
:1059B000060501222B4603F0D7FE20680122A168CC
:1059C0002B4603F0D1FE0028BDF8061008BFC1F336
:1059D0008000002808D409D02046012100F00EF8EC
:1059E000D4E9290141EA001002B0B0BD0020C4E9A9
:1059F0002800C4E92A0002B0B0BD0000B0B582B0F2
:105A0000044600200029C4F8A0003ED020680022EF
:105A1000A1684FF4004304F04BF800283AD442F256
:105A200010700DF1060500900098013800900BDB16
:105A300020680022A1682B4603F096FE002827D498
:105A4000BDF906000028EFD40098002868D420682B
:105A50000422A16840F2E11304F02AF8002819D4C6
:105A600020680DF10603A168002203F07DFE0028E6
:105A700010D4BDF806202068A16842F4007300220B
:105A800004F016F8002807D546E04FF0FF3003E099
:105A90006FF0010000283FD440F64051C0F20301EE
:105AA000009100990139009114DB0DF1060500BF4A
:105AB00020680122A1682B4603F056FE002809D475
:105AC000BDF8061001F02401242903D00099013902
:105AD0000091EDDA00281CD40098B0F1FF3F18DDEA
